

LBin-Lön

1100XXXXXXXX060423LEVERANTÖRSBETALNINGAR                                        
400000990010XXXX00000XXXXXXX            L                                       
140000990010122                      000001550000060425                         
400000990028XXXX00XXXXXXXXXXRESEERS     L                                       
140000990028123                      000001580000060425                         
40000099003 XXXX00000XXXXXXX            L                                       
14000099003 124                      000002500000060425                         
40000099004 XXXX00000XXXXXXX            L                                       
14000099004 125                      000002300000060425                         
40000099005 XXXX00000XXXXXXX            L                                       
14000099005 126                      000000500000060425                         
40000099006 XXXX00000XXXXXXX            L                                       
14000099006 127                      000001400000060425                         
40000099007 XXXX0000XXXXXXXX            L                                       
14000099007 128                      000001500000060425                         
2900XXXXXXXX00000007000011330000                                                
